S018000053544D333246373530384C6F616465722E7372656342
S3150800000000000520CD1000080D1000081310000888
S31508000010191000081F10000825100008000000002D
S315080000200000000000000000000000002B1000087F
S315080000303910000800000000471000085510000895
S315080000401D1100081D1100081D1100081D110008CA
S315080000501D1100081D1100081D1100081D110008BA
S315080000601D1100081D1100081D1100081D110008AA
S315080000701D1100081D1100081D1100081D1100089A
S315080000801D1100081D1100081D1100081D1100088A
S315080000901D1100081D1100081D1100081D1100087A
S315080000A01D1100081D1100081D1100081D1100086A
S315080000B01D1100081D1100081D1100081D1100085A
S315080000C01D1100081D1100081D1100081D1100084A
S315080000D01D1100081D1100081D1100081D1100083A
S315080000E01D1100081D1100081D1100081D1100082A
S315080000F01D1100081D1100081D1100081D1100081A
S315080001001D1100081D1100081D1100081D11000809
S315080001101D1100081D1100081D1100081D110008F9
S315080001201D1100081D1100081D1100081D110008E9
S315080001301D1100081D1100081D1100081D110008D9
S315080001401D1100081D1100081D1100081D110008C9
S315080001501D1100081D1100081D1100081D110008B9
S315080001601D1100081D1100081D1100081D110008A9
S315080001701D1100081D1100081D1100081D11000899
S315080001801D1100081D1100081D1100081D11000889
S315080001901D1100081D1100081D1100081D11000879
S315080001A01D1100081D1100081D1100081D11000869
S315080001B01D1100081D1100081D1100081D11000859
S30D080001C01D1100081D110008BD
S315080001C810B5054C237833B9044B13B10448AFF37B
S315080001D800800123237010BD0C00002000000000D9
S315080001E8F838000808B5034B1BB103490348AFF3B1
S315080001F8008008BD0000000010000020F83800083C
S3150800020853B94AB9002908BF00281CBF4FF0FF3167
S315080002184FF0FF3000F074B9ADF1080C6DE904CE63
S3150800022800F006F8DDF804E0DDE9022304B07047BB
S315080002382DE9F047089D04468E46002B4DD18A4283
S31508000248944669D9B2FA82F252B101FA02F3C2F1B6
S31508000258200120FA01F10CFA02FC41EA030E944047
S315080002684FEA1C48210CBEFBF8F61FFA8CF708FB68
S3150800027816E341EA034306FB07F199420AD91CEB40
S31508000288030306F1FF3080F01F81994240F21C8172
S31508000298023E63445B1AA4B2B3FBF8F008FB1033BA
S315080002A844EA034400FB07F7A7420AD91CEB0404EF
S315080002B800F1FF3380F00A81A74240F207816444BF
S315080002C8023840EA0640E41B00261DB1D440002344
S315080002D8C5E900433146BDE8F0878B4209D9002DA8
S315080002E800F0EF800026C5E9000130463146BDE832
S315080002F8F087B3FA83F6002E4AD18B4202D382429C
S3150800030800F2F980841A61EB030301209E46002D4A
S31508000318E0D0C5E9004EDDE702B9FFDEB2FA82F29F
S31508000328002A40F09280A1EB0C014FEA1C471FFAFD
S315080003388CFE0126200CB1FBF7F307FB131140EAE4
S3150800034801410EFB03F0884208D91CEB010103F1B1
S31508000358FF3802D2884200F2CB804346091AA4B273
S31508000368B1FBF7F007FB101144EA01440EFB00FE47
S31508000378A64508D91CEB040400F1FF3102D2A645AC
S3150800038800F2BB800846A4EB0E0440EA03409CE74B
S31508000398C6F12007B34022FA07FC4CEA030C20FAF8
S315080003A807F401FA06F31C43F9404FEA1C4900FA18
S315080003B806F3B1FBF9F8200C1FFA8CFE09FB181195
S315080003C840EA014108FB0EF0884202FA06F20BD908
S315080003D81CEB010108F1FF3A80F08880884240F258
S315080003E88580A8F102086144091AA4B2B1FBF9F09C
S315080003F809FB101144EA014100FB0EFE8E4508D997
S315080004081CEB010100F1FF346CD28E456AD902381B
S31508000418614440EA0840A0FB0294A1EB0E01A14200
S31508000428C846A64656D353D05DB1B3EB080261EB6E
S315080004380E0101FA07F722FA06F3F1401F43C5E948
S31508000448007100263146BDE8F087C2F12003D8407E
S315080004580CFA02FC21FA03F3914001434FEA1C47C0
S315080004681FFA8CFEB3FBF7F007FB10360B0C43EAB2
S31508000478064300FB0EF69E4204FA02F408D91CEB62
S31508000488030300F1FF382FD29E422DD90238634460
S315080004989B1B89B2B3FBF7F607FB163341EA034100
S315080004A806FB0EF38B4208D91CEB010106F1FF384F
S315080004B816D28B4214D9023E6144C91A46EA004646
S315080004C838E72E46284605E70646E3E61846F8E6D8
S315080004D84B45A9D2B9EB020864EB0C0E0138A3E721
S315080004E84646EAE7204694E74046D1E7D0467BE702
S315080004F8023B614432E7304609E76444023842E77A
S31508000508704700BF80B58EB000AF07F124030022FC
S315080005181A605A609A60DA601A61424B1B6B414A44
S3150800052843F0100313633F4B1B6B03F010033B6246
S315080005383B6A3C4B1B6B3B4A43F001031363394B3D
S315080005481B6B03F00103FB61FB69364B1B6B354AD2
S3150800055843F002031363334B1B6B03F00203BB61BF
S31508000568BB69304B1B6B2F4A43F4806313632D4BCF
S315080005781B6B03F480637B617B692A4B1B6B294AD7
S3150800058843F004031363274B1B6B03F004033B6117
S315080005983B69244B1B6B234A43F480731363214B33
S315080005A81B6B03F48073FB60FB681E4B1B6B1D4AB1
S315080005B843F0800313631B4B1B6B03F08003BB607C
S315080005C8BB68184B1B6B174A43F008031363154B94
S315080005D81B6B03F008037B607B680022082112481E
S315080005E801F06CFA08237B620123BB620023FB62D5
S315080005F800233B6307F1240319460B4800F0A6FFBE
S315080006084FF400637B620023BB620023FB6207F199
S3150800061824031946054800F099FF00BF3837BD4638
S3150800062880BD00BF00380240002802400020024072
S3150800063880B400AFBFF34F8F00BFBFF36F8F00BF03
S315080006480D4B0022C3F85022BFF34F8F00BFBFF3EC
S315080006586F8F00BF084B5B69074A43F40033536141
S31508000668BFF34F8F00BFBFF36F8F00BF00BFBD46F4
S315080006785DF8047B704700BF00ED00E080B400AF6A
S31508000688BFF34F8F00BFBFF36F8F00BF0A4B5B697D
S31508000698094A23F400335361074B0022C3F8502252
S315080006A8BFF34F8F00BFBFF36F8F00BF00BFBD46B4
S315080006B85DF8047B704700BF00ED00E080B485B0A4
S315080006C800AF1F4B0022C3F88420BFF34F8F00BF2B
S315080006D81B4BD3F880307B607B685B0BC3F30E0338
S315080006E8FB607B68DB08C3F30903BB60FB685A0138
S315080006F843F6E0731340BA68920711491343C1F8E1
S315080007086032BB685A1EBA60002BEFD1FB685A1EC6
S31508000718FA60002BE5D1BFF34F8F00BF084B5B6922
S31508000728074A43F480335361BFF34F8F00BFBFF3C3
S315080007386F8F00BF00BF1437BD465DF8047B70474E
S3150800074800ED00E080B485B000AF1F4B0022C3F867
S315080007588420BFF34F8F00BF1B4B5B691A4A23F4EB
S3150800076880335361BFF34F8F00BF174BD3F88030E0
S315080007787B607B685B0BC3F30E03FB607B68DB0857
S31508000788C3F30903BB60FB685A0143F6E0731340D9
S31508000798BA6892070C491343C1F87432BB685A1EE3
S315080007A8BA60002BEFD1FB685A1EFA60002BE5D118
S315080007B8BFF34F8F00BFBFF36F8F00BF00BF14375B
S315080007C8BD465DF8047B704700ED00E080B582B051
S315080007D800AF0A4B1B687B607B68094A13604FF0B9
S315080007E810431B683B603B6883F3088800BF044BCB
S315080007F81B68984700BF0837BD4680BD04000090AF
S315080008082800002080B500AFFFF712FFFFF756FF54
S3150800081800F082FC00F01CF8FFF774FE00F0BAF846
S3150800082800F08CFB00F09CF900F0F6FA0346002B62
S3150800083800D0FEE7FFF722FFFFF784FF00F088FCE9
S31508000848024B00221A60FFF7C1FFFEE710E000E03E
S3150800085880B5B4B000AF07F1A003302200211846CE
S3150800086803F03EF807F18C0300221A605A609A6072
S31508000878DA601A6107F1080384220021184603F092
S315080008882FF801F035F93E4B1B6F3D4A23F0180344
S3150800089813673B4B1B6C3A4A43F080531364384B37
S315080008A81B6C03F080537B607B68364B1B68354AA4
S315080008B843F440431360334B1B6803F440433B60DF
S315080008C83B680523C7F8A0304FF48033C7F8A4302F
S315080008D80123C7F8A8300223C7F8B8304FF48003B5
S315080008E8C7F8BC301923C7F8C0304FF4C873C7F81F
S315080008F8C4300223C7F8C8300223C7F8CC3007F13A
S31508000908A003184601F09CFE0346002B01D000F010
S315080009183BF801F0FDF80346002B01D000F034F847
S315080009280F23C7F88C300223C7F890300023C7F87E
S3150800093894304FF4A053C7F898304FF48053C7F84B
S315080009489C3007F18C030621184602F01DF9034668
S31508000958002B01D000F018F82023BB604FF48073F1
S31508000968BB6307F10803184602F0C0FA0346002BD2
S3150800097801D000F009F800BFD037BD4680BD00BFDA
S31508000988003802400070004080B400AF72B600BF5D
S31508000998FEE7000080B500AF124B134A1A60114BE8
S315080009A801225A600F4B04229A600E4B1022DA6015
S315080009B80C4B18221A610B4B4FF4A0625A61094B6B
S315080009C800229A61074B0022DA61064B00221A6256
S315080009D8044801F0EDF80346002B01D0FFF7D4FFD1
S315080009E800BF80BD2C000020001000A080B58CB088
S315080009F800AF786007F11C0300221A605A609A60F3
S31508000A08DA601A617B681B683B4A934270D13B4B94
S31508000A189B6B3A4A43F002039363384B9B6B03F08C
S31508000A280203BB61BB69354B1B6B344A43F01003A1
S31508000A381363324B1B6B03F010037B617B692F4BE7
S31508000A481B6B2E4A43F0020313632C4B1B6B03F0F4
S31508000A5802033B613B69294B1B6B284A43F0080391
S31508000A681363264B1B6B03F00803FB60FB68042320
S31508000A78FB6102233B6200237B620323BB620923D3
S31508000A88FB6207F11C0319461D4800F05FFD402369
S31508000A98FB6102233B6200237B620323BB620A23B2
S31508000AA8FB6207F11C031946164800F04FFD04239C
S31508000AB8FB6102233B6200237B620323BB62092393
S31508000AC8FB6207F11C0319460E4800F03FFD4FF478
S31508000AD86053FB6102233B6200237B620323BB62EC
S31508000AE80923FB6207F11C031946074800F02EFD87
S31508000AF800BF3037BD4680BD001000A00038024050
S31508000B080010024000040240000C024080B582B082
S31508000B1800AF78607B681B680C4A934212D10C4B6D
S31508000B289B6B0B4A23F0020393630421094800F0E0
S31508000B38B9FE4421084800F0B5FE4FF4605107484D
S31508000B4800F0B0FE00BF0837BD4680BD001000A003
S31508000B58003802400010024000040240000C02401F
S31508000B6880B500AF154801F09FF80346002B01D061
S31508000B78012321E0FFF70EFF00F082F90346002B58
S31508000B8801D0012318E0012000F066FB00F050F8B8
S31508000B980346002B01D001230EE000F011F80346A6
S31508000BA8002B01D0012307E000F08CF80346002B40
S31508000BB801D0012300E00023184680BD2C00002040
S31508000BC880B594B000AF4FF480733B630523BB61CF
S31508000BD800237B630023BB634FF08073FB6300230A
S31508000BE8FB6200237B640023BB640023FB640023A9
S31508000BF83B6001237B6000233B610123FB601023D4
S31508000C08BB604FF480037B613A4607F1180141F24D
S31508000C188833064801F003FA0346002B01D001235E
S31508000C2800E0002318465037BD4680BD2C0000203A
S31508000C3880B594B000AF4FF480733B630623BB615D
S31508000C4800237B630023BB630023FB630023FB624B
S31508000C5800237B640023BB640023FB6407F11803A5
S31508000C6841F288321946164801F042F80346002B25
S31508000C7801D001231FE002233B6002237B60002387
S31508000C883B610123FB601023BB604FF480037B6143
S31508000C980523BB614FF08073FB633A4607F11801D9
S31508000CA841F28833064801F0BAF90346002B01D009
S31508000CB8012300E0002318465037BD4680BD00BF13
S31508000CC82C00002080B590B000AF00237B604FF45D
S31508000CD880733B620523BB6000237B620023BB62EB
S31508000CE84FF08073FB620023FB6100237B630023BC
S31508000CF8BB630023FB6301233B6307F1080341F247
S31508000D0888321946434800F0F3FF0346002B01D002
S31508000D1801237AE03B1D41F2883219463D4801F025
S31508000D28DCF80346002B01D001236EE04FF48073EC
S31508000D383B621523BB6000237B620023BB624FF02E
S31508000D488073FB620023FB6100237B630023BB637C
S31508000D580023FB6301233B6307F1080341F288324A
S31508000D6819462C4800F0C4FF0346002B01D001237E
S31508000D784BE03B1D013341F288321946254801F0FC
S31508000D88ACF80346002B01D001233EE03B7943F03B
S31508000D984003DBB23B717B7963F03F03DBB27B71BF
S31508000DA84FF480733B624FF400537B610023BB62A8
S31508000DB800237B630023BB630023FB630123BB601B
S31508000DC800237B624FF08073FB620023FB610223DA
S31508000DD83B6307F1080341F2883219460D4800F0CB
S31508000DE887FF0346002B01D001230EE03B1D41F285
S31508000DF888321946074800F0D9FF0346002B03D066
S31508000E08FFF7C2FD012300E0002318464037BD4618
S31508000E1880BD00BF2C00002080B590B000AF4FF40D
S31508000E2880733B624FF400537B610023BB62002347
S31508000E387B630023BB630023FB634FF440637B6239
S31508000E484FF04073FB6201233B630023FB60EB23EF
S31508000E58BB600A23FB6100237B603A4607F1080357
S31508000E681946064801F052F90346002B01D001231A
S31508000E7800E0002318464037BD4680BD2C000020F8
S31508000E8880B590B000AF0023FB634FF48073FB6115
S31508000E984FF400533B6100237B6200233B63002326
S31508000EA87B630023BB6366237B6000233B620023C6
S31508000EB8BB600023BB620023BB613B1D41F288323D
S31508000EC819461D4800F014FF0346002B01D00123DC
S31508000ED82EE00023FB6303E000BFFB6B0133FB63D3
S31508000EE8FB6B2E2BF8D94FF48073FB614FF4005334
S31508000EF83B6100237B6200233B6300237B6300235B
S31508000F08BB6399237B6000233B620023BB600023F5
S31508000F18BB620023BB613B1D41F28832194606486D
S31508000F2800F0E6FE0346002B01D0012300E000236B
S31508000F3818464037BD4680BD2C00002080B500AF56
S31508000F480F4B104A1A600E4B00225A600C4B7F2230
S31508000F589A600B4BFF22DA60094B00221A61084B8C
S31508000F6800225A61064B00229A61054802F0AEFB38
S31508000F780346002B01D0FFF707FD00BF80BD00BF61
S31508000F88780000200028004080B483B000AF78605D
S31508000F987B681B68074A934205D1074B1B6F064AAD
S31508000FA843F40043136700BF0C37BD465DF8047B5E
S31508000FB8704700BF002800400038024080B483B05C
S31508000FC800AF0F4B1B6C0E4A43F0805313640C4B4F
S31508000FD81B6C03F080537B607B68094B5B6C084A83
S31508000FE843F480435364064B5B6C03F480433B60CD
S31508000FF83B6800BF0C37BD465DF8047B704700BFE9
S315080010080038024080B400AFFEE780B400AFFEE7C0
S3150800101880B400AFFEE780B400AFFEE780B400AF47
S31508001028FEE780B400AF00BFBD465DF8047B704795
S3150800103880B400AF00BFBD465DF8047B704780B436
S3150800104800AF00BFBD465DF8047B704780B500AFAA
S3150800105800F0E2F800BF80BD80B400AF154BD3F8A6
S315080010688830144A43F47003C2F88830124B1B6858
S31508001078114A43F0010313600F4B00229A600E4B86
S315080010881A680D490D4B13400B600B4B0C4A5A60F6
S31508001098094B1B68084A23F480231360064B002271
S315080010A8DA60044B4FF000629A6000BFBD465DF8EF
S315080010B8047B704700ED00E000380240FFFFF6FEAB
S315080010C810300024DFF834D00D480E490E4A0023A4
S315080010D802E0D458C4500433C4188C42F9D30B4AD6
S315080010E80B4C002301E013600432A242FBD3FFF73E
S315080010F8B3FF02F0D1FBFFF785FB70470000052018
S31508001108000000200C000020303900080C000020E0
S315080011189C000020FEE7000080B500AF0B4B1B685B
S315080011280A4A43F400731360084B1B68074A43F4DA
S3150800113880731360032000F065F9002000F03CF87E
S31508001148FFF73CFF0023184680BD00BF003C02405D
S3150800115880B500AF134B4FF0FF321A62114B0022CD
S315080011681A62104B4FF0FF325A620E4B00225A622F
S315080011780C4B4FF0FF321A610A4B00221A61094BD1
S315080011884FF0FF325A61074B00225A61054B4FF060
S31508001198FF329A61034B00229A6100F005F8002392
S315080011A8184680BD0038024080B400AF00BFBD466F
S315080011B85DF8047B7047000080B582B000AF7860A0
S315080011C8124B1A68124B1B7819464FF47A73B3FBFD
S315080011D8F1F3B2FBF3F3184600F03BF90346002B8C
S315080011E801D001230EE07B680F2B0AD80022796804
S315080011F84FF0FF3000F011F9064A7B6813600023A8
S3150800120800E0012318460837BD4680BD00000020C7
S31508001218080000200400002080B400AF064B1B78A5
S315080012281A46064B1B681344044A136000BFBD469A
S315080012385DF8047B704700BF08000020980000206E
S3150800124880B400AF034B1B681846BD465DF8047B9F
S31508001258704700BF9800002080B584B000AF78605A
S31508001268FFF7EEFFB8607B68FB60FB68B3F1FF3FEA
S3150800127805D00A4B1B781A46FB681344FB6000BF67
S31508001288FFF7DEFF0246BB68D31AFA689A42F7D810
S3150800129800BF00BF1037BD4680BD00BF080000204C
S315080012A880B485B000AF78607B6803F00703FB60FD
S315080012B80B4BDB68BB60BA684FF6FF031340BB608D
S315080012C8FB681A02BB681A43064B1343BB60044AF9
S315080012D8BB68D36000BF1437BD465DF8047B70470A
S315080012E800ED00E00000FA0580B400AF044BDB68A7
S315080012F81B0A03F007031846BD465DF8047B7047CA
S3150800130800ED00E080B483B000AF03463960FB7196
S3150800131897F90730002B0ADB3B68DAB20C4997F9CC
S3150800132807301201D2B20B4483F800230AE03B685F
S31508001338DAB20849FB7903F00F03043B1201D2B26B
S315080013480B441A7600BF0C37BD465DF8047B704718
S3150800135800E100E000ED00E080B489B000AFF86075
S31508001368B9607A60FB6803F00703FB61FB69C3F1A0
S315080013780703042B28BF0423BB61FB690433062B28
S3150800138802D9FB69033B00E000237B614FF0FF327B
S31508001398BB6902FA03F3DA43BB681A407B699A40C9
S315080013A84FF0FF317B6901FA03F3D9437B680B4099
S315080013B8134318462437BD465DF8047B704700007A
S315080013C880B582B000AF78607B68013BB3F1807F57
S315080013D801D301230FE00A4A7B68013B53600F21BA
S315080013E84FF0FF30FFF78EFF054B00229A60044B3B
S315080013F807221A60002318460837BD4680BD00BF75
S3150800140810E000E080B582B000AF78607868FFF732
S3150800141847FF00BF0837BD4680BD80B586B000AF18
S315080014280346B9607A60FB7300237B61FFF75CFFAC
S3150800143878617A68B9687869FFF78EFF024697F97E
S315080014480F3011461846FFF75DFF00BF1837BD462F
S3150800145880BD80B582B000AF78607868FFF7B0FFC6
S31508001468034618460837BD4680BD80B584B000AF28
S3150800147878607B689B6DFB60FFF7E2FEB8607B6867
S3150800148893F83530DBB2022B08D07B6880225A6580
S315080014987B68002283F83420012352E07B681B68A6
S315080014A81A687B681B6822F016021A607B681B6834
S315080014B85A697B681B6822F080025A617B681B6C34
S315080014C8002B03D17B689B6C002B07D07B681B68B5
S315080014D81A687B681B6822F008021A607B681B6812
S315080014E81A687B681B6822F001021A6013E0FFF786
S315080014F8A7FE0246BB68D31A052B0CD97B6820229F
S315080015085A657B68002283F834207B68032283F8AF
S315080015183520032315E07B681B681B6803F0010365
S31508001528002BE4D17B68DB6D3F229A40FB689A6002
S315080015387B68002283F834207B68012283F83520EB
S31508001548002318461037BD4680BD000080B489B010
S3150800155800AF786039600023FB6100237B610023B4
S315080015683B610023BB610023FB6175E10122FB692E
S3150800157802FA03F37B613B681B687A6913403B618F
S315080015883A697B699A4240F064813B685B68012B3B
S315080015980BD03B685B68022B07D03B685B68112B4E
S315080015A803D03B685B68122B30D17B689B68BB61AC
S315080015B8FB695B00032202FA03F3DB43BA691340AB
S315080015C8BB613B68DA68FB695B0002FA03F3BA6930
S315080015D81343BB617B68BA699A607B685B68BB61C1
S315080015E80122FB6902FA03F3DB43BA691340BB61BC
S315080015F83B685B681B0903F00102FB6902FA03F3FF
S31508001608BA691343BB617B68BA695A607B68DB6849
S31508001618BB61FB695B00032202FA03F3DB43BA6981
S315080016281340BB613B689A68FB695B0002FA03F3DF
S31508001638BA691343BB617B68BA69DA603B685B6859
S31508001648022B03D03B685B68122B23D1FB69DA08A7
S315080016587B68083253F82230BB61FB6903F007033D
S315080016689B000F2202FA03F3DB43BA691340BB61F6
S315080016783B681A69FB6903F007039B0002FA03F340
S31508001688BA691343BB61FB69DA087B680832B9692A
S3150800169843F822107B681B68BB61FB695B00032261
S315080016A802FA03F3DB43BA691340BB613B685B681C
S315080016B803F00302FB695B0002FA03F3BA691343F2
S315080016C8BB617B68BA691A603B685B6803F080533C
S315080016D8002B00F0BE80664B5B6C654A43F480437A
S315080016E85364634B5B6C03F48043FB60FB68614A95
S315080016F8FB699B08023352F82330BB61FB6903F088
S3150800170803039B000F2202FA03F3DB43BA6913406B
S31508001718BB617B68584A934237D07B68574A9342DD
S3150800172831D07B68564A93422BD07B68554A9342F8
S3150800173825D07B68544A93421FD07B68534A934204
S3150800174819D07B68524A934213D07B68514A934210
S315080017580DD07B68504A934207D07B684F4A93421C
S3150800176801D1092312E00A2310E008230EE0072313
S315080017780CE006230AE0052308E0042306E0032311
S3150800178804E0022302E0012300E00023FA6902F0DC
S31508001798030292009340BA691343BB613549FB6952
S315080017A89B080233BA6941F823203D4B1B68BB6185
S315080017B83B69DB43BA691340BB613B685B6803F462
S315080017C88033002B03D0BA693B691343BB61344A9B
S315080017D8BB691360324B5B68BB613B69DB43BA691B
S315080017E81340BB613B685B6803F40033002B03D0E6
S315080017F8BA693B691343BB61294ABB695360284BDD
S315080018089B68BB613B69DB43BA691340BB613B68AC
S315080018185B6803F48013002B03D0BA693B6913434A
S31508001828BB611F4ABB6993601D4BDB68BB613B699B
S31508001838DB43BA691340BB613B685B6803F4001372
S31508001848002B03D0BA693B691343BB61144ABB69C9
S31508001858D360FB690133FB61FB690F2B7FF686AE04
S3150800186800BF00BF2437BD465DF8047B704700BF3C
S3150800187800380240003801400000024000040240D7
S3150800188800080240000C0240001002400014024002
S3150800189800180240001C02400020024000240240B2
S315080018A8003C014080B487B000AF786039600023F7
S315080018B83B610023FB600023BB6000237B61D9E002
S315080018C801227B6902FA03F33B613A683B691340D4
S315080018D8FB60FA683B699A4240F0C9806B4A7B69A3
S315080018E89B08023352F82330BB607B6903F0030375
S315080018F89B000F2202FA03F3BA681340BB607B68A1
S31508001908634A934237D07B68624A934231D07B68F0
S31508001918614A93422BD07B68604A934225D07B68FC
S315080019285F4A93421FD07B685E4A934219D07B6808
S315080019385D4A934213D07B685C4A93420DD07B6814
S315080019485B4A934207D07B685A4A934201D10923D6
S3150800195812E00A2310E008230EE007230CE006230A
S315080019680AE0052308E0042306E0032304E002232B
S3150800197802E0012300E000237A6902F003029200DC
S315080019889340BA689A4232D14B4B1A68FB68DB43D4
S31508001998494913400B60484B5A68FB68DB4346497C
S315080019A813404B60444B9A68FB68DB434249134033
S315080019B88B60414BDA68FB68DB433F491340CB60D1
S315080019C87B6903F003039B000F2202FA03F3BB604B
S315080019D82E4A7B699B08023352F82310BB68DA4300
S315080019E82A487B699B080A40023340F823207B680B
S315080019F81A687B695B00032101FA03F3DB431A4083
S31508001A087B681A607B69DA087B68083253F8221003
S31508001A187B6903F007039B000F2202FA03F3DB43F3
S31508001A287A69D20819407B68083243F822107B681D
S31508001A38DA687B695B00032101FA03F3DB431A4082
S31508001A487B68DA607B685A6801217B6901FA03F3C7
S31508001A58DB431A407B685A607B689A687B695B0037
S31508001A68032101FA03F3DB431A407B689A607B6912
S31508001A7801337B617B690F2B7FF622AF00BF00BF5E
S31508001A881C37BD465DF8047B704700BF0038014027
S31508001A98000002400004024000080240000C024010
S31508001AA8001002400014024000180240001C0240C0
S31508001AB80020024000240240003C014080B483B064
S31508001AC800AF78600B467B8013467B707B78002BCB
S31508001AD803D07A887B689A6103E07B881A047B6856
S31508001AE89A6100BF0C37BD465DF8047B7047000055
S31508001AF880B400AF054B1B68044A43F4807313602F
S31508001B0800BFBD465DF8047B704700BF0070004003
S31508001B1880B582B000AF00237B60234B1B6C224A3A
S31508001B2843F080531364204B1B6C03F080533B60CF
S31508001B383B681E4B1B681D4A43F480331360FFF746
S31508001B487FFB786009E0FFF77BFB02467B68D31AC0
S31508001B58B3F57A7F01D9032322E0144B5B6803F4B3
S31508001B688033B3F5803FEED1104B1B680F4A43F418
S31508001B7800331360FFF764FB786009E0FFF760FB42
S31508001B8802467B68D31AB3F57A7F01D9032307E09F
S31508001B98064B5B6803F40033B3F5003FEED1002328
S31508001BA818460837BD4680BD003802400070004018
S31508001BB880B586B002AF7860FFF742FBF8607B68AD
S31508001BC8002B01D1012367E07B6893F84130DBB22B
S31508001BD8002B0BD17B68002283F840207868FEF733
S31508001BE805FF41F28831786800F05FFB7B681B685F
S31508001BF81B6823F4F8517B689B68013B1A027B68CB
S31508001C081B680A431A607B689B6C0093FB68002272
S31508001C182021786800F057FB0346FB72FB7A002BF5
S31508001C2835D17B681B681A681D4B13407A68526859
S31508001C3811067A68D26811437A68D26911437A68B4
S31508001C48126A11437A6812680B4313607B681B682B
S31508001C585A68144B13407A68126911047A685269EB
S31508001C6811437A68926911437A6812680B4353607C
S31508001C787B681B681A687B681B6842F001021A6051
S31508001C887B6800225A647B68012283F841207B68B6
S31508001C98002283F84020FB7A18461037BD4680BDD7
S31508001CA82FFFFF00FEF8E0FF80B582B000AF78602E
S31508001CB87B68002B01D1012316E07B681B681A682C
S31508001CC87B681B6822F001021A607868FEF71EFF17
S31508001CD87B6800225A647B68002283F841207B6867
S31508001CE8002283F84020002318460837BD4680BDE1
S31508001CF880B588B002AFF860B9607A60FFF7A0FAD5
S31508001D083861FB6893F84030DBB2012B01D1022316
S31508001D1848E0FB68012283F84020FB6893F84130C5
S31508001D28DBB2012B37D1FB6800225A64FB68022212
S31508001D3883F841207B6800933B6900222021F868D4
S31508001D4800F0C1FA0346FB75FB7D002B25D100225E
S31508001D58B968F86800F0EEFABB685B6A002B15D11B
S31508001D687B6800933B6901220221F86800F0ABFA08
S31508001D780346FB75FB7D002B0FD1FB681B68022207
S31508001D88DA60FB68012283F8412006E0FB68012235
S31508001D9883F8412001E00223FB75FB68002283F8DB
S31508001DA84020FB7D18461837BD4680BD80B58AB0E9
S31508001DB802AFF860B9607A600023FB77FFF740FA4C
S31508001DC8B861FB681B6820337B61FB6893F8403071
S31508001DD8DBB2012B01D102237BE0FB68012283F8E1
S31508001DE84020FB6893F84130DBB2012B6AD1FB68C7
S31508001DF800225A64BB68002B5BD0FB68122283F862
S31508001E084120FB681B681B695A1CFB68DA62FB6879
S31508001E181B681B695A1CFB689A62FB68BA685A628F
S31508001E28FB681B685A69FB681B6822F040625A619E
S31508001E381BE07B680093BB6901220421F86800F05F
S31508001E4842FA0346FB77FB7F002B13D1FB685B6AD4
S31508001E581A787B691A70FB685B6A5A1CFB685A62AF
S31508001E68FB68DB6A5A1EFB68DA62FB68DB6A002BCA
S31508001E78DFD100E000BFFB7F002B15D17B680093FC
S31508001E88BB6901220221F86800F01DFA0346FB77B0
S31508001E98FB7F002B08D1FB681B680222DA60F8680A
S31508001EA800F096F90346FB77FB68012283F8412080
S31508001EB80AE0FB685B6C43F00802FB685A64012376
S31508001EC8FB7701E00223FB77FB68002283F84020B2
S31508001ED8FB7F18462037BD4680BD80B58AB002AF5D
S31508001EE8F860B9607A600023FB77FFF7A9F9B8614B
S31508001EF8FB681B689B697B61FB681B6820333B6131
S31508001F08FB6893F84030DBB2012B01D1022382E04B
S31508001F18FB68012283F84020FB6893F84130DBB25E
S31508001F28012B71D1FB6800225A64BB68002B62D06A
S31508001F38FB68222283F84120FB681B681B695A1C28
S31508001F48FB689A63FB681B681B695A1CFB685A631B
S31508001F58FB68BA681A63FB681B685B6923F040620A
S31508001F68FB681B6842F080625A61FB681B687A69DD
S31508001F789A611CE07B680093BB6901220621F86810
S31508001F8800F0A1F90346FB77FB7F002B14D1FB6809
S31508001F981B6B3A691278D2B21A70FB681B6B5A1C0B
S31508001FA8FB681A63FB689B6B5A1EFB689A63FB6897
S31508001FB89B6B002BDED100E000BFFB7F002B15D101
S31508001FC87B680093BB6901220221F86800F07BF957
S31508001FD80346FB77FB7F002B08D1FB681B680222A8
S31508001FE8DA60F86800F0F4F80346FB77FB68012224
S31508001FF883F841200AE0FB685B6C43F00802FB683B
S315080020085A640123FB7701E00223FB77FB68002269
S3150800201883F84020FB7F18462037BD4680BD80B52B
S3150800202888B002AFF860B9607A603B60FFF708F9D4
S315080020383861FB6893F84030DBB2012B01D10223E3
S3150800204860E0FB68012283F84020FB6893F841307A
S31508002058DBB2012B4FD1FB6800225A64FB68422287
S3150800206883F841203B6800933B6900222021F868E1
S3150800207800F029F90346FB75FB7D002B3DD1FB686B
S315080020881B687A6812689A62FB681B687A685268DD
S315080020985A62FB681B687A689268DA62FB681B688A
S315080020A81B6823F440027B681B691A43FB681B6894
S315080020B842F480021A607B68DA68BB689A624FF055
S315080020C80062B968F86800F035F93B6800933B691F
S315080020D801220821F86800F0F6F80346FB75FB7D2F
S315080020E8002B0AD1FB681B680822DA60FB68012204
S315080020F883F8412001E00223FB75FB68002283F878
S315080021084020FB7D18461837BD4680BD80B588B087
S3150800211802AFF860B9607A60FFF792F83861FB6831
S3150800212893F84030DBB2012B01D102234CE0FB685F
S31508002138012283F84020FB6893F84130DBB2012B73
S315080021483BD1FB6800225A64FB68822283F8412047
S31508002158FB689B6C00933B6900222021F86800F015
S31508002168B2F80346FB75FB7D002B28D1FB681B6874
S315080021781B6823F008017B685A68FB681B680A43D2
S315080021881A607B685B68082B10D1FB681B687A683D
S3150800219812681A63FB681B681022DA60FB681B68FA
S315080021A81A68FB681B6842F480121A604FF040628E
S315080021B8B968F86800F0BEF801E00223FB75FB6809
S315080021C8002283F84020FB7D18461837BD4680BD97
S315080021D880B586B002AF78600023FB73FFF730F846
S315080021E8B8607B6893F84130DBB203F00203002B32
S315080021F856D07B68002283F840207B681B681B68DA
S3150800220803F00403002B17D07B681B681A687B68E1
S315080022181B6822F004021A607B68DB6B1846FFF716
S3150800222824F90346FB73FB7B002B05D07B685B6CA4
S3150800223843F004027B685A647B681B681A687B68E3
S315080022481B6842F002021A607B689B6C0093BB68A5
S3150800225801220221786800F036F80346FB73FB7BF7
S31508002268002B0ED17B681B680222DA607B689B6CA0
S315080022780093BB6800222021786800F024F80346FA
S31508002288FB73FB7B002B0BD17B681B685A697B6841
S315080022981B6822F040625A617B68012283F8412054
S315080022A8FB7B18461037BD4680BD80B483B000AFA7
S315080022B8786039607B683A689A6400BF0C37BD460F
S315080022C85DF8047B704780B584B000AFF860B960E4
S315080022D83B601346FB711AE0BB69B3F1FF3F16D0A2
S315080022E8FEF7AEFF02463B68D31ABA699A4202D38A
S315080022F8BB69002B0BD1FB68042283F84120FB68D5
S315080023085B6C43F00102FB685A6401230EE0FB6824
S315080023181B689A68BB681340002B14BF0123002367
S31508002328DBB21A46FB799A42D6D1002318461037EB
S31508002338BD4680BD80B485B000AFF860B9607A60E4
S31508002348BB685B6A002B09D07B68B3F1406F05D080
S31508002358BB689A6AFB681B68013A1A61BB689B697D
S31508002368002B00F0B980BB681B6A002B5FD0FB689E
S315080023781B68BA689268DA61BB68DB69002B31D0DA
S31508002388BB68DA6ABB681B6B1A43BB685B6B1A4384
S31508002398BB685B6A1A43BB685B699B041A43BB68DC
S315080023A81B691A43BB681B6A1A43BB68DB681A436E
S315080023B8BB68DB691A43BB689B691A43BB681B6819
S315080023C842EA0301FB681B687A680A435A617B6814
S315080023D8B3F1406F00F02E81FB681B68BA68526833
S315080023E89A6127E1BB68DA6ABB681B6B1A43BB6844
S315080023F85B6B1A43BB685B6A1A43BB685B699B04D9
S315080024081A43BB681B691A43BB681B6A1A43BB682D
S31508002418DB691A43BB689B691A43BB681B6842EAAF
S315080024280301FB681B687A680A435A6102E1BB68BC
S31508002438DB69002B2ED0BB68DA6ABB681B6B1A43AC
S31508002448BB685B6B1A43BB685B6A1A43BB685B6904
S315080024589B041A43BB681B6A1A43BB68DB681A43A2
S31508002468BB68DB691A43BB689B691A43BB681B6868
S3150800247842EA0301FB681B687A680A435A617B6863
S31508002488B3F1406F00F0D680FB681B68BA685268DB
S315080024989A61CFE0BB68DA6ABB681B6B1A43BB68EC
S315080024A85B6B1A43BB685B6A1A43BB685B699B0428
S315080024B81A43BB681B6A1A43BB68DB691A43BB68BD
S315080024C89B691A43BB681B6842EA0301FB681B68D9
S315080024D87A680A435A61ADE0BB681B6A002B58D074
S315080024E8FB681B68BA689268DA61BB68DB69002B07
S315080024F82DD0BB68DA6ABB681B6B1A43BB685B6B73
S315080025081A43BB685B6A1A43BB685B699B041A4330
S31508002518BB681B691A43BB681B6A1A43BB68DB6836
S315080025281A43BB68DB691A43BB689B6942EA03011D
S31508002538FB681B687A680A435A617B68B3F1406F7F
S3150800254878D0FB681B68BA6852689A6172E0BB68FB
S31508002558DA6ABB681B6B1A43BB685B6B1A43BB68B2
S315080025685B6A1A43BB685B699B041A43BB681B69A9
S315080025781A43BB681B6A1A43BB68DB691A43BB68FC
S315080025889B6942EA0301FB681B687A680A435A6131
S3150800259850E0BB68DB69002B2AD0BB68DA6ABB68DF
S315080025A81B6B1A43BB685B6B1A43BB685B6A1A43A7
S315080025B8BB685B699B041A43BB681B6A1A43BB68FA
S315080025C8DB681A43BB68DB691A43BB689B6942EA3E
S315080025D80301FB681B687A680A435A617B68B3F18A
S315080025E8406F27D0FB681B68BA6852689A6121E071
S315080025F8BB685B6A002B1DD0BB68DA6ABB681B6BB5
S315080026081A43BB685B6B1A43BB685B6A1A43BB68A9
S315080026185B699B041A43BB681B6A1A43BB68DB6978
S315080026281A43BB689B6942EA0301FB681B687A6818
S315080026380A435A6100BF1437BD465DF8047B7047E4
S3150800264880B586B000AF78600023FB757B68002BE1
S3150800265801D1012391E27B681B6803F00103002B73
S3150800266800F08780964B9B6803F00C03042B0CD06C
S31508002678934B9B6803F00C03082B12D1904B5B68AD
S3150800268803F48003B3F5800F0BD18D4B1B6803F455
S315080026980033002B6CD07B685B68002B68D101235C
S315080026A86BE27B685B68B3F5803F06D1844B1B6891
S315080026B8834A43F4803313602EE07B685B68002BFB
S315080026C80CD17F4B1B687E4A23F4803313607C4BFE
S315080026D81B687B4A23F4802313601DE07B685B68CC
S315080026E8B3F5A02F0CD1764B1B68754A43F48023A3
S315080026F81360734B1B68724A43F4803313600BE00C
S315080027086F4B1B686E4A23F4803313606C4B1B6847
S315080027186B4A23F4802313607B685B68002B13D00D
S31508002728FEF78EFD386108E0FEF78AFD02463B692A
S31508002738D31A642B01D903231FE2614B1B6803F4E0
S315080027480033002BF0D014E0FEF77AFD386108E074
S31508002758FEF776FD02463B69D31A642B01D9032393
S315080027680BE2574B1B6803F40033002BF0D100E04B
S3150800277800BF7B681B6803F00203002B69D0504B27
S315080027889B6803F00C03002B0BD04D4B9B6803F09A
S315080027980C03082B1CD14A4B5B6803F48003002BF7
S315080027A816D1474B1B6803F00203002B05D07B683C
S315080027B8DB68012B01D00123DFE1414B1B6823F0BD
S315080027C8F8027B681B69DB003D4913430B6040E050
S315080027D87B68DB68002B23D0394B1B68384A43F0E3
S315080027E801031360FEF72CFD386108E0FEF728FDA3
S315080027F802463B69D31A022B01D90323BDE1304BA4
S315080028081B6803F00203002BF0D02D4B1B6823F03E
S31508002818F8027B681B69DB00294913430B6018E03B
S31508002828274B1B68264A23F001031360FEF708FDA9
S31508002838386108E0FEF704FD02463B69D31A022B05
S3150800284801D9032399E11E4B1B6803F00203002BE9
S31508002858F0D17B681B6803F00803002B38D07B6827
S315080028685B69002B19D0164B5B6F154A43F00103B9
S315080028785367FEF7E5FC386108E0FEF7E1FC024617
S315080028883B69D31A022B01D9032376E10C4B5B6FFC
S3150800289803F00203002BF0D01AE0094B5B6F084AD5
S315080028A823F001035367FEF7CBFC38610AE0FEF70D
S315080028B8C7FC02463B69D31A022B03D903235CE1FA
S315080028C800380240914B5B6F03F00203002BEED1F0
S315080028D87B681B6803F00403002B00F0A4808B4B6D
S315080028E81B6C03F08053002B0DD1884B1B6C874A51
S315080028F843F080531364854B1B6C03F08053BB600D
S31508002908BB680123FB75824B1B6803F48073002B95
S3150800291818D17F4B1B687E4A43F480731360FEF711
S315080029288FFC386108E0FEF78BFC02463B69D31A30
S31508002938642B01D9032320E1754B1B6803F48073C4
S31508002948002BF0D07B689B68012B06D16F4B1B6F59
S315080029586E4A43F0010313672DE07B689B68002BDA
S315080029680CD16A4B1B6F694A23F001031367674B3F
S315080029781B6F664A23F0040313671CE07B689B6891
S31508002988052B0CD1614B1B6F604A43F00403136790
S315080029985E4B1B6F5D4A43F0010313670BE05B4B05
S315080029A81B6F5A4A23F001031367584B1B6F574A84
S315080029B823F0040313677B689B68002B15D0FEF782
S315080029C83FFC38610AE0FEF73BFC02463B69D31A2E
S315080029D841F28832934201D90323CEE04B4B1B6F51
S315080029E803F00203002BEED014E0FEF729FC386149
S315080029F80AE0FEF725FC02463B69D31A41F28832FB
S31508002A08934201D90323B8E0404B1B6F03F0020336
S31508002A18002BEED1FB7D012B05D13C4B1B6C3B4AA9
S31508002A2823F0805313647B689B69002B00F0A4800D
S31508002A38364B9B6803F00C03082B6BD07B689B69A5
S31508002A48022B49D1314B1B68304A23F08073136037
S31508002A58FEF7F6FB386108E0FEF7F2FB02463B692B
S31508002A68D31A022B01D9032387E0284B1B6803F0E6
S31508002A780073002BF0D17B68DA697B681B6A1A43F6
S31508002A887B685B6A9B011A437B689B6A5B08013B08
S31508002A981B041A437B68DB6A1B0613431B4A43F06D
S31508002AA800535360194B1B68184A43F08073136028
S31508002AB8FEF7C6FB386108E0FEF7C2FB02463B692B
S31508002AC8D31A022B01D9032357E0104B1B6803F0CE
S31508002AD80073002BF0D04FE00C4B1B680B4A23F011
S31508002AE880731360FEF7ACFB386108E0FEF7A8FBB5
S31508002AF802463B69D31A022B01D903233DE0034B4F
S31508002B081B6803F00073002BF0D135E0003802404B
S31508002B18007000401B4B5B68FB607B689B69012B58
S31508002B2828D0FB6803F480027B68DB699A4221D1C6
S31508002B38FB6803F03F027B681B6A9A421AD1FA6857
S31508002B4847F6C07313407A68526A9201934211D1C4
S31508002B58FB6803F440327B689B6A5B08013B1B04ED
S31508002B689A4207D1FB6803F070627B68DB6A1B062A
S31508002B789A4201D0012300E0002318461837BD46BB
S31508002B8880BD00BF0038024080B584B000AF7860C9
S31508002B9839600023FB607B68002B01D10123D0E054
S31508002BA86A4B1B6803F00F033A689A4210D9674BB9
S31508002BB81B6823F00F0265493B6813430B60634B98
S31508002BC81B6803F00F033A689A4201D00123B8E05C
S31508002BD87B681B6803F00203002B20D07B681B6800
S31508002BE803F00403002B05D0594B9B68584A43F455
S31508002BF8E05393607B681B6803F00803002B05D035
S31508002C08534B9B68524A43F460439360504B9B6806
S31508002C1823F0F0027B689B684D4913438B607B68F9
S31508002C281B6803F00103002B40D07B685B68012B07
S31508002C3807D1474B1B6803F40033002B15D1012332
S31508002C487FE07B685B68022B07D1414B1B6803F062
S31508002C580073002B09D1012373E03D4B1B6803F071
S31508002C680203002B01D101236BE0394B9B6823F043
S31508002C7803027B685B68364913438B60FEF7E0FA04
S31508002C88F8600AE0FEF7DCFA0246FB68D31A41F256
S31508002C988832934201D9032353E02D4B9B6803F0EE
S31508002CA80C027B685B689B009A42EBD1274B1B6832
S31508002CB803F00F033A689A4210D2244B1B6823F094
S31508002CC80F0222493B6813430B60204B1B6803F02D
S31508002CD80F033A689A4201D0012332E07B681B68E1
S31508002CE803F00403002B08D0194B9B6823F4E05221
S31508002CF87B68DB68164913438B607B681B6803F09F
S31508002D080803002B09D0124B9B6823F460427B68A2
S31508002D181B69DB000E4913438B6000F021F8024655
S31508002D280B4B9B681B0903F00F030A49CB5C22FA75
S31508002D3803F3094A1360094B1B681846FEF73CFA61
S31508002D48002318461037BD4680BD00BF003C024028
S31508002D58003802401039000800000020040000204E
S31508002D682DE9B04F90B000AF00237B630023FB63C7
S31508002D7800233B630023BB63594B9B6803F00C0392
S31508002D88082B0DD0082B00F2A180002B02D0042BAB
S31508002D9803D09BE0534BBB639BE0534BBB6398E064
S31508002DA84F4B5B6803F03F037B634D4B5B6803F44B
S31508002DB88003002B28D04A4B5B689B0900223B629C
S31508002DC87A623B6AC3F308000021474B03FB01F20A
S31508002DD8002300FB03F31344434AA0FB0212FA62DA
S31508002DE80A46BA62FA6A1344FB627B6B0022BB6125
S31508002DF8FA61D7E90623D7E90A01FDF701FA024677
S31508002E080B461346FB6353E0354B5B689B09002268
S31508002E183B617A613B69C3F3080A4FF0000B5246D7
S31508002E285B464FF000004FF00001590141EAD261B4
S31508002E38500102460B46B2EB0A0863EB0B094FF042
S31508002E4800024FF000034FEA891343EA98634FEAF2
S31508002E588812B2EB080463EB09054FF000024FF03D
S31508002E680003EB0043EA5473E20014461D4614EBCC
S31508002E780A033B6045EB0B037B604FF000024FF0FB
S31508002E880003D7E9004529468B02214643EA9153B0
S31508002E9821468A02104619467B6B0022BB60FA60F7
S31508002EA8D7E90223FDF7ACF902460B461346FB633E
S31508002EB80B4B5B681B0C03F0030301335B003B6396
S31508002EC8FA6B3B6BB2FBF3F3BB6302E0054BBB63E0
S31508002ED800BFBB6B18464037BD46BDE8B08F00BF7C
S31508002EE8003802400024F40040787D0180B588B097
S31508002EF800AF786000237B6100233B610023FB60F9
S31508002F080023FB610023BB617B681B6803F0010390
S31508002F18002B12D0694B9B68684A23F40003936018
S31508002F28664B9A687B685B6B644913438B607B685E
S31508002F385B6B002B01D10123FB617B681B6803F4DB
S31508002F480023002B17D05D4BD3F88C3023F440129E
S31508002F587B68DB6B59491343C1F88C307B68DB6B9C
S31508002F68B3F5801F01D10123FB617B68DB6B002B5E
S31508002F7801D10123BB617B681B6803F48013002B0E
S31508002F8817D04E4BD3F88C3023F440027B681B6C61
S31508002F984A491343C1F88C307B681B6CB3F5800F1C
S31508002FA801D10123FB617B681B6C002B01D101232E
S31508002FB8BB617B681B6803F08073002B01D0012373
S31508002FC8FB617B681B6803F02003002B00F08B80ED
S31508002FD83A4B1B6C394A43F080531364374B1B6CC6
S31508002FE803F08053BB60BB68354B1B68344A43F40F
S31508002FF880731360FEF724F9786108E0FEF720F974
S3150800300802467B69D31A642B01D9032357E32C4B51
S315080030181B6803F48073002BF0D0284B1B6F03F44E
S3150800302840733B613B69002B35D07B681B6B03F407
S3150800303840733A699A422ED0204B1B6F23F440738B
S315080030483B611E4B1B6F1D4A43F4803313671B4BAA
S315080030581B6F1A4A23F480331367184A3B691367A8
S31508003068164B1B6F03F00103012B14D1FEF7E8F882
S3150800307878610AE0FEF7E4F802467B69D31A41F25A
S315080030888832934201D9032319E30C4B1B6F03F0CB
S315080030980203002BEED07B681B6B03F44073B3F571
S315080030A8407F11D1054B9B6823F4F8127B68196B8E
S315080030B8044B0B40014913438B600BE00038024070
S315080030C800700040FFFCFF0FAA4B9B68A94A23F42F
S315080030D8F8139360A74B1A6F7B681B6BC3F30B0334
S315080030E8A44913430B677B681B6803F01003002B7E
S315080030F810D0A04BD3F88C309E4A23F08073C2F8C0
S315080031088C309C4BD3F88C207B689B6B994913436E
S31508003118C1F88C307B681B6803F48043002B0AD0FF
S31508003128944BD3F8903023F440327B685B6E914910
S315080031381343C1F890307B681B6803F40043002BDF
S315080031480AD08C4BD3F8903023F440227B689B6EC8
S3150800315888491343C1F890307B681B6803F48033A9
S31508003168002B0AD0834BD3F8903023F440127B689F
S31508003178DB6E80491343C1F890307B681B6803F4FB
S315080031880033002B0AD07B4BD3F8903023F4400247
S315080031987B681B6F77491343C1F890307B681B68B7
S315080031A803F04003002B0AD0724BD3F8903023F073
S315080031B803027B685B6C6F491343C1F890307B68E0
S315080031C81B6803F08003002B0AD06A4BD3F89030AB
S315080031D823F00C027B689B6C66491343C1F8903050
S315080031E87B681B6803F48073002B0AD0614BD3F8FD
S315080031F8903023F030027B68DB6C5E491343C1F8D4
S3150800320890307B681B6803F40073002B0AD0594B6F
S31508003218D3F8903023F0C0027B681B6D55491343D9
S31508003228C1F890307B681B6803F48063002B0AD0CA
S31508003238504BD3F8903023F440727B685B6D4D4948
S315080032481343C1F890307B681B6803F40063002BAE
S315080032580AD0484BD3F8903023F440627B689B6DBC
S3150800326844491343C1F890307B681B6803F48053BC
S31508003278002B0AD03F4BD3F8903023F440527B6892
S31508003288DB6D3C491343C1F890307B681B6803F42F
S315080032980053002B0AD0374BD3F8903023F440421A
S315080032A87B681B6E33491343C1F890307B681B68EB
S315080032B803F48003002B0AD02E4BD3F8903023F062
S315080032C880627B689B6F2B491343C1F890307B68F3
S315080032D81B6803F40013002B11D0264BD3F8903043
S315080032E823F000627B68DB6F22491343C1F89030EC
S315080032F87B68DB6FB3F1006F01D10123BB617B6883
S315080033081B6803F00803002B01D00123BB617B6807
S315080033181B6803F48023002B0AD0164BD3F8903089
S3150800332823F040727B685B6F12491343C1F89030EB
S315080033387B681B6803F40003002B0BD00D4BD3F8EE
S31508003348903023F080527B68D3F8803009491343BC
S31508003358C1F89030FB69012B06D07B681B6803F01F
S315080033680073002B00F0D980024B1B68014A23F032
S31508003378806301E0003802401360FDF761FF786159
S3150800338808E0FDF75DFF02467B69D31A642B01D96D
S31508003398032394E16C4B1B6803F00063002BF0D100
S315080033A87B681B6803F00103002B21D07B685B6BE5
S315080033B8002B1DD1644BD3F884301B0C03F0030390
S315080033C83B61614BD3F884301B0E03F00F03FB6097
S315080033D87B685B689A013B691B041A43FB681B06F2
S315080033E81A437B689B681B0757491343C1F88430FF
S315080033F87B681B6803F40023002B04D07B68DB6B0F
S31508003408B3F5801F0AD07B681B6803F48013002B6A
S315080034182ED07B681B6CB3F5800F29D14A4BD3F89D
S3150800342884301B0C03F003033B61474BD3F8843005
S315080034381B0F03F00703FB607B685B689A013B690F
S315080034481B041A437B68DB681B061A43FB681B07C1
S315080034583D491343C1F884303B4BD3F88C3023F0ED
S315080034681F027B685B6A013B37491343C1F88C30F6
S315080034787B681B6803F08073002B1DD0324BD3F88A
S3150800348884301B0E03F00F033B612F4BD3F88430AF
S315080034981B0F03F00703FB607B685B689A017B6870
S315080034A81B691B041A433B691B061A43FB681B075F
S315080034B825491343C1F884307B681B6803F00073F9
S315080034C8002B11D07B685B689A017B681B691B0413
S315080034D81A437B68DB681B061A437B689B681B07CD
S315080034E819491343C1F88430174B1B68164A43F029
S315080034F880631360FDF7A4FE786108E0FDF7A0FE77
S3150800350802467B69D31A642B01D90323D7E00E4BED
S315080035181B6803F00063002BF0D0BB69012B40F051
S31508003528CD80094B1B68084A23F080531360FDF7C2
S3150800353887FE78610AE0FDF783FE02467B69D31A9F
S31508003548642B03D90323BAE0003802405E4B1B6894
S3150800355803F00053B3F1005FEDD07B681B6803F4F2
S315080035680023002B03D07B68DB6B002B09D07B6814
S315080035781B6803F48013002B2ED07B681B6C002B6A
S315080035882AD1514BD3F888301B0C03F003033B614F
S315080035984D4BD3F888301B0F03F00703FB607B6895
S315080035A85B699A013B691B041A437B689B691B067E
S315080035B81A43FB681B0744491343C1F88830424B32
S315080035C8D3F88C3023F4F8527B689B6A013B1B02BC
S315080035D83D491343C1F88C307B681B6803F4001314
S315080035E8002B22D07B68DB6FB3F1006F1DD1364BF9
S315080035F8D3F888301B0E03F00F033B61324BD3F820
S3150800360888301B0F03F00703FB607B685B699A0128
S315080036187B681B6A1B041A433B691B061A43FB682B
S315080036281B0729491343C1F888307B681B6803F0D0
S315080036380803002B28D0244BD3F888301B0E03F038
S315080036480F033B61204BD3F888301B0C03F00303A8
S31508003658FB607B685B699A01FB681B041A433B6934
S315080036681B061A437B68DB691B0717491343C1F80E
S315080036788830154BD3F88C3023F440327B68DB6AE4
S3150800368811491343C1F88C300F4B1B680E4A43F097
S3150800369880531360FDF7D4FD786108E0FDF7D0FD87
S315080036A802467B69D31A642B01D9032307E0064B24
S315080036B81B6803F00053B3F1005FEFD100231846E7
S315080036C82037BD4680BD00BF0038024080B582B0AD
S315080036D800AF78607B68002B01D1012381E07B6805
S315080036E85B7FDBB2002B05D17B6800221A777868E6
S315080036F8FDF74AFC7B6802225A777B681B68CA2250
S315080037085A627B681B6853225A62786800F098F8F0
S315080037180346002B08D07B681B68FF225A627B6821
S3150800372804225A7701235CE07B681B6899687B68E2
S315080037381A682E4B0B4093607B681B6899687B68F0
S315080037485A687B681B691A437B685B691A437B68F6
S315080037581B680A439A607B681B687A68D2681A618C
S315080037687B681B6819697B689B681A047B681B68F1
S315080037780A431A617B681B68DA687B681B6822F04B
S315080037888002DA607B681B689B6803F02003002BBD
S315080037980ED1786800F02CF80346002B08D07B6811
S315080037A81B68FF225A627B6804225A77012318E0AD
S315080037B87B681B68DA6C7B681B6822F00802DA6487
S315080037C87B681B68D96C7B689A697B681B680A439F
S315080037D8DA647B681B68FF225A627B6801225A777B
S315080037E8002318460837BD4680BD00BFBFFF8FFFB8
S315080037F880B584B000AF78600023FB607B681B68DF
S31508003808DA687B681B6822F0A002DA60FDF718FD03
S31508003818F86009E0FDF714FD0246FB68D31AB3F50C
S315080038287A7F01D9032307E07B681B68DB6803F006
S315080038382003002BEED0002318461037BD4680BD5E
S3150800384880B584B000AF78600023FB607B681B688E
S31508003858DB6803F04003002B19D17B681B684FF01F
S31508003868FF32DA60FDF7ECFCF86009E0FDF7E8FCE2
S315080038780246FB68D31AB3F57A7F01D9032307E012
S315080038887B681B68DB6803F04003002BEED0002337
S3150800389818461037BD4680BD70B50D4D0D4C641BD6
S315080038A8A4100026A64209D10B4D0C4C00F020F8AE
S315080038B8641BA4100026A64205D170BD55F8043B22
S315080038C898470136EEE755F8043B98470136F2E77C
S315080038D82839000828390008283900082C3900082A
S315080038E802440346934200D1704703F8011BF9E7DF
S315080038F8F8B500BFF8BC08BC9E467047F8B500BFC7
S30D08003908F8BC08BC9E46704796
S315080039100000000000000000010203040607080971
S30D0800392018C9FF7F0100000031
S30908003928ED01000897
S3090800392CC9010008B7
S311080039300024F400100000000100000054
S705080010CD15
